:020000040800F2
:1000000000000220511300082113000823130008E8
:10001000251300082713000829130008000000001A
:100020000000000000000000000000002B1300088A
:100030002D130008000000002F13000831130008E2
:10004000A1130008A1130008A1130008A1130008C0
:10005000A1130008A1130008A1130008A1130008B0
:10006000A1130008A1130008A1130008A1130008A0
:10007000A1130008A1130008A1130008A113000890
:10008000A1130008A1130008A1130008A113000880
:10009000A1130008A1130008A1130008A113000870
:1000A000A1130008A1130008A1130008A113000860
:1000B000A1130008A1130008A1130008A113000850
:1000C000A1130008A1130008A1130008A113000840
:1000D000A1130008A1130008A1130008A113000830
:1000E000A1130008A1130008A1130008A113000820
:1000F000A1130008A1130008A1130008A113000810
:10010000A1130008A1130008A1130008A1130008FF
:10011000A1130008A1130008A1130008A1130008EF
:10012000A1130008A1130008A1130008A1130008DF
:10013000A1130008A1130008A1130008A1130008CF
:10014000A1130008A1130008A1130008A1130008BF
:10015000A1130008A1130008A1130008A1130008AF
:10016000A1130008A1130008A1130008A11300089F
:10017000A1130008A1130008A1130008000000004B
:08018000A1130008A1130008FF
:1001880010B5054C237833B9044B13B10448AFF3C9
:1001980000800123237010BD0C0000200000000027
:1001A800FC13000808B5034B1BB103490348AFF320
:1001B800008008BD0000000010000020FC130008AB
:1001C80053B94AB9002908BF00281CBF4FF0FF31B6
:1001D8004FF0FF3000F06EB9ADF1080C6DE904CEB8
:1001E80000F006F8DDF804E0DDE9022304B070470A
:1001F8002DE9F047089D04468C46002B40F083808B
:100208008A42174647D9B2FA82F242B1C2F12000B7
:1002180024FA00F09140974040EA010C94404FEADC
:100228001748230CBCFBF8F61FFA87FE08FB16C11B
:1002380043EA014306FB0EF1994209D9FB1806F17E
:10024800FF3080F01981994240F21681023E3B440A
:100258005B1AA4B2B3FBF8F008FB103344EA03447A
:1002680000FB0EFEA64509D93C1900F1FF3380F0CA
:100278000581A64540F2028102383C4440EA064026
:10028800A4EB0E0400261DB1D4400023C5E90043A9
:100298003146BDE8F08702B9FFDEB2FA82F2002AE1
:1002A80050D1CB1B4FEA174E1FFA87F80126B3FB34
:1002B800FEFC210C0EFB1C3341EA034108FB0CF346
:1002C8008B4207D979180CF1FF3002D28B4200F229
:1002D800E9808446C91AA3B2B1FBFEF00EFB1011E7
:1002E80043EA014408FB00F8A04507D93C1900F18E
:1002F800FF3302D2A04500F2D9801846A4EB0804C7
:1003080040EA0C40BFE78B4209D9002D00F0B180CC
:100318000026C5E9000130463146BDE8F087B3FA4A
:1003280083F6002E4AD18B4202D3824200F2B88073
:10033800841A61EB030101208C46002DA8D0C5E981
:10034800004CA5E7C2F1200320FA03F6974001FA12
:1003580002F04FEA174ED9403043030CB1FBFEF6CA
:100368001FFA87F80EFB161143EA014306FB08F152
:10037800994204FA02F409D9FB1806F1FF3C80F00F
:100388008D80994240F28A80023E3B445B1A81B2DA
:10039800B3FBFEF00EFB103341EA034100FB08F308
:1003A8008B4207D9791800F1FF3C73D28B4271D97F
:1003B80002383944CB1A40EA064678E7C6F1200CE1
:1003C80003FA06F422FA0CF31C4320FA0CF701FA9C
:1003D80006F34FEA144E21FA0CF11F433B0CB1FB14
:1003E800FEF91FFA84F80EFB191143EA014109FBD3
:1003F80008FA8A4502FA06F200FA06F308D96118E3
:1004080009F1FF3048D28A4546D9A9F102092144A9
:10041800A1EB0A01BFB2B1FBFEF00EFB101147EAD7
:10042800014700FB08F8B84507D9E71900F1FF3183
:100438002ED2B8452CD90238274440EA0940A7EB08
:100448000807A0FB02894F45C64649461AD317D06C
:100458005DB1B3EB0E0267EB010707FA0CFCF24043
:100468004CEA0202F740C5E9002700263146BDE8FC
:10047800F0872E4628460BE70646E9E61846FDE6CD
:100488004345E5D2B8EB020E69EB04010138DFE71A
:100498000846D2E760468DE78146B9E7664675E7C4
:1004A80030464AE7ACF1020C394413E702383C44C1
:1004B80024E700BF704700BF38B50E4A0E4B05460B
:1004C80018784FF47A73B3FBF0F31068B0FBF3F0CD
:1004D80000F09AF8044658B90F2D09D80246294663
:1004E8004FF0FF3000F05EF8044B20461D6038BD29
:1004F8000120FCE708000020000000200400002084
:1005080008B50B4B1A6842F400721A601A6842F474
:1005180080621A601A6842F480721A60032000F040
:100528002FF80020FFF7C8FF00F0C2FE002008BD2A
:10053800003C0240034A044B11681B780B441360CB
:10054800704700BF3800002000000020014B1868E9
:10055800704700BF3800002038B50446FFF7F6FFA3
:10056800631C1CBF054B1B78054618BFE418FFF732
:10057800EDFF431BA342FAD338BD00BF00000020A3
:100588000749CA6822F4E0620302120403F4E06334
:10059800120C134343F0BF6343F40033CB6070473E
:1005A80000ED00E0164B30B5DC68C4F30224C4F15A
:1005B8000705231D042D28BF0425062B4FF0FF3304
:1005C8008CBF033C002403FA05F521EA0501A3408A
:1005D80022EA0302A140002841EA0203ACBF00F16D
:1005E8006040084A4FEA0313B8BF00F00F00DBB2BF
:1005F800AABF00F56140135480F8003330BD00BF36
:1006080000ED00E014ED00E00138B0F1807F0AD27F
:10061800064B074A5860F02182F823100020072271
:1006280098601A6070470120704700BF10E000E032
:1006380000ED00E02DE9F74FDFF8A891674A0023A5
:100648000D6801249C4004EA050CAC4340F0B180DD
:100658004D6805F003044FEA43080326671E06FAAF
:1006680008F6012F6FEA060634D8876807EA060EEF
:10067800CF6807FA08F747EA0E078760476827EA4E
:100688000C0EC5F300179F4047EA0E074760C7687E
:1006980007EA060E8F6807FA08F747EA0E07022CE2
:1006A800C76019D14FEAD30A00EB8A0A03F0070B97
:1006B800DAF820704FEA8B0B4FF00F0E0EFA0BFE94
:1006C80027EA0E0E0F6907FA0BF747EA0E07CAF872
:1006D800207001E0032CDAD1076804FA08F43E40E0
:1006E800264315F4403F066063D04FF0000ACDF86A
:1006F80004A0D9F844603A4C46F48046C9F84460EE
:10070800D9F8446006F480460196019E23F003065A
:1007180006F1804606F59C3603F0030ED6F80880ED
:100728004FEA8E0E0F2707FA0EF7A04228EA0707AE
:1007380046D004F58064A04244D004F58064A04209
:1007480042D004F58064A04240D004F58064A04201
:100758003ED004F58064A0423CD004F58064A042F9
:100768003AD004F58064A0420CBF0724082404FA98
:100778000EF43C43B46014686FEA0C06EF0354BFF0
:1007880034404CEA040414605468AF0354BF344046
:100798004CEA040454609468EF0254BF34404CEAB5
:1007A80004049460D468AD0254BF34404CEA040495
:1007B800D4600133102B7FF443AF03B0BDE8F08F52
:1007C8005446D4E70124D2E70224D0E70324CEE735
:1007D8000424CCE70524CAE70624C8E7003C014006
:1007E80000000240003802400369194214BF01208A
:1007F800002070470AB1816170470904FBE70000D7
:100808002DE9F341044640B30368DD0710D423689B
:1008180098075ED423681A0700F1A08023685B0755
:1008280000F1BE80A069002840F01F8100202BE065
:10083800A64B9A6802F00C02042A07D09A6802F0C4
:100848000C02082A0BD15A68510208D59F4B1B6825
:100858009A03DCD56368002BD9D1012014E06268C3
:10086800B2F5803F13D11A6842F480321A60FFF75C
:100878006DFE964E054633689B03C8D4FFF766FEA7
:10088800401B6428F7D9032002B0BDE8F0818F4DE2
:10089800B2F5A02F2B6807D143F480232B602B6877
:1008A80043F480332B60E2E723F480332B602B681A
:1008B80023F480232B60002AD9D1FFF747FE064690
:1008C8002B689F03A3D5FFF741FE801B6428F7D947
:1008D800D9E77E4B9A6812F00C0F07D09A6802F09D
:1008E8000C02082A11D15B685E020ED4774B1A6895
:1008F800950702D5E268012AAFD11A68216922F06A
:10090800F80242EAC1021A6084E7E268704BB2B1A9
:1009180001221A60FFF71AFE6C4D06462B689807ED
:1009280007D52B68226923F0F80343EAC2032B603A
:1009380070E7FFF70BFE801B0228EFD9A3E71A60C8
:10094800FFF704FE614E0546336899077FF562AFED
:10095800FFF7FCFD401B0228F6D994E762695D4B5E
:100968007AB101221A60FFF7F1FD584E0546736F00
:100978009F073FF553AFFFF7E9FD401B0228F6D963
:1009880081E71A60FFF7E2FD504E0546736F98073E
:100998007FF544AFFFF7DAFD401B0228F6D972E76E
:1009A8004A4B1A6C12F0805228D101921A6C42F00C
:1009B80080521A641B6C03F080530193019B01273A
:1009C800454D2B68D9051BD5A368404D012B27D170
:1009D8002B6F43F001032B67FFF7B8FD3B4E05462D
:1009E80041F28838336F9B0739D5002F3FF41AAF8F
:1009F800364A136C23F08053136413E70027DFE7AC
:100A08002B6843F480732B60FFF7A0FD06462B6824
:100A1800DA05D9D4FFF79AFD801B0228F7D932E707
:100A2800052B04D12B6F43F004032B67D0E72A6F03
:100A380022F001022A672A6F22F004022A67002B9B
:100A4800CAD1FFF783FD41F2883806462B6F980715
:100A5800CBD5FFF77BFD801B4045F7D913E7FFF7A0
:100A680075FD401B4045BDD90DE7184DAB6803F037
:100A78000C03082B47D0194E00230228336035D1C8
:100A8800FFF764FD07462B68990129D4D4E907329A
:100A98001343626A43EA8213E26A43EA0263A26A80
:100AA8005208013A43EA02436B6001233360FFF7BF
:100AB8004DFD064D04462B689A013FF5B7AEFFF78A
:100AC80045FD001B0228F6D9DDE600BF00380240CC
:100AD80000004742800E47420070004060004742D5
:100AE800FFF734FDC01B0228CDD9CCE6FFF72EFD59
:100AF80004462B689B017FF599AEFFF727FD001B85
:100B08000228F6D9BFE601283FF4BEAE6B68E26959
:100B180003F4800191427FF4A0AE216A03F03F0202
:100B28008A427FF49AAE616A47F6C0721A40B2EB05
:100B3800811F7FF492AEA26A520803F44031013A51
:100B4800B1EB024F7FF489AEE26A03F07063B3EB56
:100B5800026F3FF46BAE80E6134908B58B6803F06B
:100B68000C03042B1CD0082B1CD14A684B6849681D
:100B780013F4800314BF0D480D48C1F3881118BF42
:100B8800002302F03F02A1FB0001FFF719FB064B0F
:100B98005B68C3F3014301335B00B0FBF3F008BDAE
:100BA8000248FCE70248FAE70038024040787D0135
:100BB8000024F4002DE9F0410D46044610B9012047
:100BC800BDE8F081444B1A6802F007028A4228D334
:100BD800226897072DD4D00741D43F4B1A6802F0FA
:100BE8000702AA4266D8226851076CD4130707D5B2
:100BF8003A4A2169936823F4604343EAC103936046
:100C0800FFF7AAFF354B364A9B68C3F30313D35C3F
:100C1800D840344B1860344B1868FFF74DFC00205F
:100C2800CEE7CAB21A701B6803F007038B42C6D11D
:100C3800CEE72A4B12F0040F1EBF996841F4E05129
:100C48009960160742BF996841F460419960234949
:100C5800A0688B6823F0F00303438B60BBE76268EE
:100C68001E4B012A1CD11B6813F4003FA7D01B4E52
:100C7800B36823F003031343B360FFF767FC41F243
:100C880088380746B368626803F00C03B3EB820F39
:100C9800A3D0FFF75BFCC01B4045F3D903208FE7C7
:100CA800911E01291B6802D813F0007FDEE713F0BC
:100CB800020FDBE7EAB21A701B6803F00703AB42C6
:100CC8007FF47DAF8FE70549E0688B6823F4E05334
:100CD80003438B608AE700BF003C024000380240B3
:100CE80014140008080000200400002090F83D308B
:100CF800012B2CD10223174A80F83D300368934218
:100D08001AD0B3F1804F17D0A2F57C42934213D08A
:100D180002F5806293420FD002F5806293420BD0B5
:100D280002F57842934207D002F57052934203D0FD
:100D3800A2F59432934204D19A6802F00702062A77
:100D480003D01A6842F001021A600020704701209F
:100D5800704700BF00000140304A0368904212D03B
:100D6800B0F1804F0FD0A2F57C4290420BD002F533
:100D78008062904207D002F58062904203D002F56B
:100D88007842904219D14A6823F070031343234AEA
:100D9800904229D0B0F1804F26D0A2F57C429042F3
:100DA80022D002F5806290421ED002F58062904205
:100DB8001AD002F57842904216D0194A904213D0C0
:100DC80002F5806290420FD002F5806290420BD00B
:100DD800A2F59832904207D002F58062904203D083
:100DE80002F58062904203D1CA6823F4407313432A
:100DF8004A6923F08003134303608B68C3620B685E
:100E08008362064B984203D003F58063984201D170
:100E18000B69036301234361704700BF0000014071
:100E28000040014010B5044630B390F83D3003F05F
:100E3800FF021BB980F83C2000F056FA0223206814
:100E480084F83D30211DFFF787FF012384F84630E1
:100E5800002084F83E3084F83F3084F8403084F82D
:100E6800413084F8423084F8433084F8443084F8C0
:100E7800453084F83D3010BD0120FCE730B590F8CE
:100E88003C30012B4FF0020332D080F83D3003682C
:100E98000D685C689A6824F070042C435C60154CFB
:100EA800A3421AD0B3F1804F17D0A4F57C44A342D3
:100EB80013D004F58064A3420FD004F58064A342E4
:100EC8000BD004F57844A34207D004F57054A3422C
:100ED80003D0A4F59434A34204D1496822F08002D7
:100EE8000A439A60012380F83D30002380F83C30A3
:100EF800184630BD00000140034B1B6800225A62AF
:100F08005A6A8242FCD37047680000207FB50023EC
:100F18000191012201A9CDE9022305930493FFF76A
:100F280089FB07B05DF804FB7FB50023CDE9011309
:100F380001A9CDE903330593FFF77CFB07B05DF802
:100F480004FB00002DE9F04FDFF8E081002385B0B5
:100F580042461C460133282B02F8014BFAD16C4B50
:100F68006C4ADFF8D0A1DFF8D0B1DFF8D0916A4E33
:100F78006A4F6B4D6B481C80042114708AF800403E
:100F8800A9F80040ABF8004034803C702C80FFF793
:100F9800BDFF002204216348FFF72CFC44F2506097
:100FA800FFF7AAFF04215F48FFF7BEFF5E4A584BD0
:100FB8001168CDF80CA0CDE9013B4C62594C924622
:100FC80004212046FFF710FC0128DAF8003078D019
:100FD8000022544C5A6204212046FFF705FCDAF837
:100FE8000030002877D001995A6A0A804D4C0022B7
:100FF8005A6204212046FFF7F7FBDAF8003001288F
:101008005B6A6FD0A9F80030464C4FF00009CB4618
:10101800DAF80020C2F824B004212046FFF7E4FBE8
:10102800DAF80020002862D0C2F824B00421204653
:10103800FFF7DAFBDAF80020526A012892B25CD096
:10104800019BA2F1150108291A805AD8A5F800B009
:10105800364B2A8803F8092009F10109B9F1280F4C
:10106800D6D13188002318F8012B01330A445200E5
:10107800082B91B2F7D1029B1B8810202B4A125CD7
:10108800013013445B0018289BB2F7D13A7820202E
:10109800264C245C0130224452002828D2B2F7D1D1
:1010A80052083A704A080299039832805B080B800C
:1010B800DBB253FA82F101701D4901200B704A70AE
:1010C80006E05B6A9BB2B3F5FA7F7FF679AF002042
:1010D80005B0BDE8F08F5B6A9BB2B3F5FA7F7FF687
:1010E8007AAFF4E79BB2B3F5FA7F82D9EFE7526A99
:1010F80092B2B2F5FA7F8FD9E9E7B2F5FA7F95D9BE
:10110800E5E73D3A122A9CBF01222A80A0E700BFEA
:101118002E0000202A0000202C000020340000208F
:101128003200002000000240680000203E0000203D
:101138003C0000202B00002036000020300000205A
:1011480030B595B01422002109A800F04BF91422FB
:10115800002103A800F046F900241C4B01941A6CE6
:1011680042F080521A641B6C03F080530193019B78
:10117800174B02941A6842F480421A601B6803F401
:10118800804302930122029B1023CDE90B230821FF
:10119800A8230225CDE9101308A804231393CDE949
:1011A8000E5408951295FFF72BFB0F23CDE9033555
:1011B8004FF4A0504FF48053CDE90603052103A84E
:1011C8000594FFF7F7FC15B030BD00BF00380240AA
:1011D8000070004000B589B0FFF792F9FFF7B0FF43
:1011E8001422002103A800F0FDF80024274B0194E5
:1011F8001A6B2748274D284E42F080021A631A6B53
:1012080002F080020192019A02941A6B42F00102E4
:101218001A631B6B03F00103224602930421029B0D
:10122800FFF7E8FA04220123194803A9CDE90323AB
:10123800CDE90544FFF7FEF91849AC605323C5E929
:101248000013284640F6FE73EB60AC61CDE9034419
:10125800FFF7E8FD03A92846CDE90344FFF70EFE92
:101268002846FFF743FD0E4C0E4DFFF76BFE012895
:10127800207005D133882B700B4B1A880B4B1A70D2
:101288004FF47A70FFF768F9EFE700BF00380240C3
:1012980000000240680000203600002000100040D6
:1012A8002A000020290000202C000020280000200F
:1012B80082B00C4B002100915A6C42F480425A646F
:1012C8005A6C02F480420092009A01911A6C42F022
:1012D80080521A641B6C03F080530193019B02B087
:1012E800704700BF003802400268094B9A4282B03A
:1012F8000BD100230193074B1A6C42F010021A64B9
:101308001B6C03F010030193019B02B0704700BFF0
:1013180000100040003802407047FEE7FEE7FEE795
:10132800FEE7704770477047FFF704B9054BD3F8DD
:10133800882042F47002C3F888204FF000629A6057
:10134800704700BF00ED00E0DFF834D0002103E073
:101358000C4B5B58435004310B480C4B42189A42D3
:10136800F6D30B4A02E0002342F8043B094B9A42A9
:10137800F9D3FFF7DBFF00F011F8FFF72BFF7047F9
:101388000000022034140008000000200C00002097
:101398000C000020B0000020FEE7000070B50D4DE5
:1013A8000D4C641BA4100026A64209D10B4D0C4C11
:1013B80000F020F8641BA4100026A64205D170BDD9
:1013C80055F8043B98470136EEE755F8043B984733
:1013D8000136F2E72C1400082C1400082C1400081D
:1013E8003014000802440346934200D1704703F8C2
:1013F800011BF9E7F8B500BFF8BC08BC9E4670476A
:0C140800F8B500BFF8BC08BC9E46704759
:1014140000000000000000000102030406070809A0
:08142400D4EDFF7F0100000080
:04142C00AD01000806
:041430008901000826
:0C14340001000000100000000024F40083
:04000005080013518B
:00000001FF
