:020000040800F2
:1000000000000220252700085D100008631000088A
:10001000691000086F10000875100008000000004B
:100020000000000000000000000000007B1000083D
:10003000891000080000000097100008A5100008B3
:100040007527000875270008752700087527000820
:100050007527000875270008752700087527000810
:100060007527000875270008752700087527000800
:1000700075270008752700087527000875270008F0
:1000800075270008752700087527000875270008E0
:1000900075270008752700087527000875270008D0
:1000A00075270008752700087527000875270008C0
:1000B00075270008752700087527000875270008B0
:1000C00075270008752700087527000875270008A0
:1000D0007527000875270008752700087527000890
:1000E0007527000875270008752700087527000880
:1000F0007527000875270008752700087527000870
:10010000752700087527000875270008752700085F
:10011000752700087527000875270008752700084F
:10012000752700087527000875270008752700083F
:10013000752700087527000875270008752700082F
:10014000752700087527000875270008752700081F
:10015000752700087527000875270008752700080F
:1001600075270008752700087527000875270008FF
:100170007527000875270008752700080000000093
:0801800075270008752700082F
:1001880010B5054C237833B9044B13B10448AFF3C9
:1001980000800123237010BD0C0000200000000027
:1001A800D027000808B5034B1BB103490348AFF338
:1001B800008008BD0000000010000020D0270008C3
:1001C80081F0004102E000BF83F0004330B54FEA00
:1001D80041044FEA430594EA050F08BF90EA020F6D
:1001E8001FBF54EA000C55EA020C7FEA645C7FEA00
:1001F800655C00F0E2804FEA5454D4EB5555B8BF23
:100208006D420CDD2C4480EA020281EA030382EA93
:10021800000083EA010180EA020281EA0303362D25
:1002280088BF30BD11F0004F4FEA01314FF4801CF8
:100238004CEA113102D0404261EB410113F0004F0A
:100248004FEA03334CEA133302D0524263EB4303C1
:1002580094EA050F00F0A780A4F10104D5F1200E5F
:100268000DDB02FA0EFC22FA05F2801841F10001BA
:1002780003FA0EF2801843FA05F359410EE0A5F18E
:1002880020050EF1200E012A03FA0EFC28BF4CF0BF
:10029800020C43FA05F3C01851EBE37101F0004575
:1002A80007D54FF0000EDCF1000C7EEB00006EEB82
:1002B8000101B1F5801F1BD3B1F5001F0CD349080C
:1002C8005FEA30004FEA3C0C04F101044FEA445263
:1002D80012F5800F80F09A80BCF1004F08BF5FEAEA
:1002E800500C50F1000041EB045141EA050130BDCA
:1002F8005FEA4C0C404141EB010111F4801FA4F16D
:100308000104E9D191F0000F04BF01460020B1FAC1
:1003180081F308BF2033A3F10B03B3F120020CDAF9
:100328000C3208DD02F1140CC2F10C0201FA0CF0D7
:1003380021FA02F10CE002F11402D8BFC2F1200C3C
:1003480001FA02F120FA0CFCDCBF41EA0C019040F2
:10035800E41AA2BF01EB0451294330BD6FEA04043B
:100368001F3C1CDA0C340EDC04F11404C4F1200226
:1003780020FA04F001FA02F340EA030021FA04F338
:1003880045EA030130BDC4F10C04C4F1200220FA8F
:1003980002F001FA04F340EA0300294630BD21FACD
:1003A80004F0294630BD94F0000F83F4801306BF93
:1003B80081F480110134013D4EE77FEA645C18BF87
:1003C8007FEA655C29D094EA050F08BF90EA020F1E
:1003D80005D054EA000C04BF1946104630BD91EA16
:1003E800030F1EBF0021002030BD5FEA545C05D119
:1003F8004000494128BF41F0004130BD14F5800458
:100408003CBF01F5801130BD01F0004545F0FE41CB
:1004180041F470014FF0000030BD7FEA645C1ABF00
:10042800194610467FEA655C1CBF0B46024650EA37
:10043800013406BF52EA033591EA030F41F4002163
:1004480030BD00BF90F0000F04BF0021704730B5E9
:100458004FF4806404F132044FF000054FF00001BE
:1004680050E700BF90F0000F04BF0021704730B57F
:100478004FF4806404F1320410F0004548BF404254
:100488004FF000013EE700BF42004FEAE2014FEAA9
:1004980031014FEA02701FBF12F07F4393F07F4F84
:1004A80081F06051704792F0000F14BF93F07F4FB6
:1004B800704730B54FF4607401F0004521F00041F9
:1004C80020E700BF50EA010208BF704730B54FF07F
:1004D80000050AE050EA010208BF704730B511F084
:1004E800004502D5404261EB41014FF4806404F1BC
:1004F80032045FEA915C3FF4DCAE4FF003025FEA3E
:10050800DC0C18BF03325FEADC0C18BF033202EBC5
:10051800DC02C2F1200300FA03FC20FA02F001FA1F
:1005280003FE40EA0E0021FA02F11444C1E600BFBE
:1005380070B54FF0FF0C4CF4E06C1CEA11541DBF71
:100548001CEA135594EA0C0F95EA0C0F00F0DEF83C
:100558002C4481EA030621EA4C5123EA4C5350EA21
:10056800013518BF52EA033541F4801143F4801372
:1005780038D0A0FB02CE4FF00005E1FB02E506F003
:100588000042E0FB03E54FF00006E1FB03569CF058
:10059800000F18BF4EF0010EA4F1FF04B6F5007F5E
:1005A80064F5407404D25FEA4E0E6D4146EB0606D0
:1005B80042EAC62141EA55514FEAC52040EA5E5059
:1005C8004FEACE2EB4F1FD0C88BFBCF5E06F1ED803
:1005D800BEF1004F08BF5FEA500E50F1000041EB3A
:1005E800045170BD06F0004646EA010140EA0200E7
:1005F80081EA0301B4EB5C04C2BFD4EB0C0541EA09
:10060800045170BD41F480114FF0000E013C00F31D
:10061800AB8014F1360FDEBF002001F0004170BD41
:10062800C4F10004203C35DA0C341BDC04F114045A
:10063800C4F1200500FA05F320FA04F001FA05F2E6
:1006480040EA020001F0004221F0004110EBD370B3
:1006580021FA04F642EB06015EEA430E08BF20EADF
:10066800D37070BDC4F10C04C4F1200500FA04F382
:1006780020FA05F001FA04F240EA020001F0004114
:1006880010EBD37041F100015EEA430E08BF20EA87
:10069800D37070BDC4F1200500FA05F24EEA020ECF
:1006A80020FA04F301FA05F243EA020321FA04F0FE
:1006B80001F0004121FA04F220EA020000EBD370B5
:1006C8005EEA430E08BF20EAD37070BD94F0000FB5
:1006D8000FD101F00046400041EB010111F4801FE9
:1006E80008BF013CF7D041EA060195F0000F18BF9A
:1006F800704703F00046520043EB030313F4801FD6
:1007080008BF013DF7D043EA0603704794EA0C0F8F
:100718000CEA135518BF95EA0C0F0CD050EA4106A5
:1007280018BF52EA4306D1D181EA030101F0004122
:100738004FF0000070BD50EA410606BF104619464A
:1007480052EA430619D094EA0C0F02D150EA013656
:1007580013D195EA0C0F05D152EA03361CBF104697
:1007680019460AD181EA030101F0004141F0FE4136
:1007780041F470014FF0000070BD41F0FE4141F4BA
:10078800780170BD70B54FF0FF0C4CF4E06C1CEABA
:1007980011541DBF1CEA135594EA0C0F95EA0C0F6F
:1007A80000F0A7F8A4EB050481EA030E52EA03352A
:1007B8004FEA013100F088804FEA03334FF080554B
:1007C80045EA131343EA12634FEA022245EA111578
:1007D80045EA10654FEA00260EF000419D4208BF29
:1007E800964244F1FD0404F5407402D25B084FEAD6
:1007F8003202B61A65EB03055B084FEA32024FF482
:1008080080104FF4002CB6EB020E75EB030E22BFDE
:10081800B61A754640EA0C005B084FEA3202B6EB9E
:10082800020E75EB030E22BFB61A754640EA5C004D
:100838005B084FEA3202B6EB020E75EB030E22BFDD
:10084800B61A754640EA9C005B084FEA3202B6EBDE
:10085800020E75EB030E22BFB61A754640EADC009D
:1008680055EA060E18D04FEA051545EA16754FEAFF
:1008780006164FEAC30343EA52734FEAC2025FEA1D
:100888001C1CC0D111F4801F0BD141EA00014FF0AC
:1008980000004FF0004CB6E711F4801F04BF01437D
:1008A8000020B4F1FD0C88BFBCF5E06F3FF6AFAE99
:1008B800B5EB030C04BFB6EB020C5FEA500C50F129
:1008C800000041EB045170BD0EF0004E4EEA1131AC
:1008D80014EB5C04C2BFD4EB0C0541EA045170BDB3
:1008E80041F480114FF0000E013C90E645EA060EF7
:1008F8008DE60CEA135594EA0C0F08BF95EA0C0F25
:100908003FF43BAF94EA0C0F0AD150EA01347FF46C
:1009180034AF95EA0C0F7FF425AF104619462CE743
:1009280095EA0C0F06D152EA03353FF4FDAE1046A6
:10093800194622E750EA410618BF52EA43067FF4F7
:10094800C5AE50EA41047FF40DAF52EA43057FF487
:10095800EBAE12E74FEA4102B2F1E04324BFB3F530
:10096800001CDCF1FE5C0DD901F0004C4FEAC0021E
:100978004CEA5070B2F1004F40EB830008BF20F002
:100988000100704711F0804F21D113F13872BCBFBC
:1009980001F00040704741F480114FEA5252C2F111
:1009A8001802C2F1200C10FA0CF320FA02F018BF5A
:1009B80040F001004FEAC1234FEAD32303FA0CFCAD
:1009C80040EA0C0023FA02F34FEA4303CCE77FEA3C
:1009D800625307D150EA01331EBF4FF0FE4040F486
:1009E8004000704701F0004040F0FE4040F4000035
:1009F800704700BF53B94AB9002908BF00281CBF77
:100A08004FF0FF314FF0FF3000F07AB9ADF1080C2C
:100A18006DE904CE00F006F8DDF804E0DDE9022314
:100A280004B070472DE9F0478C460D460446089EF1
:100A3800002B51D18A4217466DD9B2FA82FEBEF117
:100A4800000F0BD0CEF1200C01FA0EF520FA0CFCA9
:100A580002FA0EF74CEA050C00FA0EF44FEA174AB0
:100A6800250CBCFBFAF81FFA87F90AFB18CC45EAF3
:100A78000C4508FB09F3AB420AD9ED1908F1FF321E
:100A880080F02381AB4240F22081A8F102083D4466
:100A9800ED1AA4B2B5FBFAF00AFB105544EA054476
:100AA80000FB09F9A14509D9E41900F1FF3380F0E9
:100AB8000A81A14540F2078102383C44A4EB0904AD
:100AC80040EA08400021002E61D024FA0EF40023E9
:100AD80034607360BDE8F0878B4207D9002E54D08C
:100AE800002186E821000846BDE8F087B3FA83F1C3
:100AF800002940F08E80AB4202D3824200F2FA8095
:100B0800841A65EB03050120AC46002E3FD086E829
:100B18001010BDE8F08712B90127B7FBF2F7B7FA52
:100B280087FEBEF1000F34D1EB1B3A0C1FFA87FC8D
:100B38000121B3FBF2F8250C02FB183345EA034503
:100B48000CFB08F3AB4207D9ED1908F1FF3002D2CC
:100B5800AB4200F2D1808046ED1AA3B2B5FBF2F0A9
:100B680002FB105543EA05440CFB00FCA44507D9D9
:100B7800E41900F1FF3302D2A44500F2B880184608
:100B8800A4EB0C0440EA08409DE731463046BDE836
:100B9800F087CEF1200405FA0EF307FA0EF720FAD3
:100BA80004F83A0C25FA04F448EA0308B4FBF2F115
:100BB8004FEA184502FB11441FFA87FC45EA044531
:100BC80001FB0CF3AB4200FA0EF409D9ED1901F15F
:100BD800FF3080F08A80AB4240F2878002393D4482
:100BE800EB1A1FFA88F5B3FBF2F002FB103345EA63
:100BF800034500FB0CF3AB4207D9ED1900F1FF38B0
:100C08006FD2AB426DD902383D44EB1A40EA01413C
:100C18008FE7C1F1200722FA07F88B4005FA01F4A3
:100C280048EA030320FA07FE4FEA134CFD404EEA58
:100C3800040EB5FBFCF94FEA1E440CFB19551FFACC
:100C480083F844EA054509FB08F4AC4202FA01F2CC
:100C580000FA01FA08D9ED1809F1FF3043D2AC4285
:100C680041D9A9F102091D442D1B1FFA8EFEB5FBBF
:100C7800FCF00CFB10554EEA054400FB08F8A045B3
:100C880007D9E41800F1FF3529D2A04527D9023841
:100C98001C4440EA0940A4EB0804A0FB02894C4527
:100CA800C6464D4615D312D056B1BAEB0E0364EBC7
:100CB800050404FA07F7CB401F43CC403760746043
:100CC8000021BDE8F0871846F8E69046E0E6C24500
:100CD800EAD2B8EB020E69EB03050138E4E72846CF
:100CE800D7E7404691E78146BEE7014678E70238F4
:100CF8003C4445E7084608E7A8F102083D442BE7CD
:100D0800704700BF0000000098B500AF1C4800F015
:100D180093FA1C491A4800F094FB0346002B25D18E
:100D2800174800F019FC03469AB2174B1A80164B65
:100D38001B881846FFF796FB0DA3D3E90023FFF79E
:100D4800F7FB03460C46184621460BA3D3E90023BC
:100D5800FFF718FD03460C4618462146FFF7FAFD33
:100D680002460A4B1A60064800F038FB00BF98BDDF
:100D78006666666666660A400000000000FEAF40D0
:100D880030000020A08601002C0000202800002050
:100D980080B500AF00F09AF900F008F800F0C2F84A
:100DA80000F06EF8FFF7B0FFFCE7000080B594B0E4
:100DB80000AF07F1200330220021184601F0FCFCA7
:100DC80007F10C0300221A605A609A60DA601A610F
:100DD8000023BB60284A284B1B6C43F080531364E4
:100DE800254B1B6C03F08053BB60BB6800237B6002
:100DF800224A224B1B6843F4804313601F4B1B6835
:100E080003F480437B607B6801233B624FF48033AB
:100E18007B620223BB634FF48003FB6304233B64C0
:100E2800A8237B640223BB640423FB6407F120032B
:100E3800184601F03DF80346002B01D000F09AF85F
:100E48000F23FB6002233B6100237B614FF4A05317
:100E5800BB614FF48053FB6107F10C030521184671
:100E680001F09EFA0346002B01D000F083F800BF82
:100E78005037BD4680BD00BF0038024000700040BA
:100E880080B584B000AF3B4600221A605A609A6071
:100E9800DA60214B214A1A601F4B4FF480325A60A6
:100EA8001D4B00229A601C4B00221A611A4B01222A
:100EB8001A76194B002283F82020174B0022DA6299
:100EC800154B174A9A62144B0022DA60124B012222
:100ED800DA61114B002283F830200F4B01225A614E
:100EE8000D4800F065F90346002B01D000F042F8E8
:100EF80000233B6001237B600023BB603B4619460F
:100F0800054800F037FB0346002B01D000F032F80B
:100F180000BF1037BD4680BD3000002000200140D2
:100F28000100000F80B483B000AF00237B60104A3B
:100F38000F4B1B6B43F0800313630D4B1B6B03F0CC
:100F480080037B607B6800233B60094A084B1B6B6E
:100F580043F001031363064B1B6B03F001033B6073
:100F68003B6800BF0C37BD465DF8047B704700BF87
:100F78000038024080B400AF72B6FEE780B483B098
:100F880000AF00237B60104A0F4B5B6C43F4804337
:100F980053640D4B5B6C03F480437B607B680023D8
:100FA8003B60094A084B1B6C43F080531364064BA3
:100FB8001B6C03F080533B603B6800BF0C37BD4699
:100FC8005DF8047B704700BF0038024080B58AB0E6
:100FD80000AF786007F1140300221A605A609A6023
:100FE800DA601A617B681B68174A934227D100238D
:100FF8003B61164A154B5B6C43F480735364134B87
:101008005B6C03F480733B613B690023FB600F4A10
:101018000E4B1B6B43F0010313630C4B1B6B03F06C
:101028000103FB60FB6801237B610323BB61002391
:10103800FB6107F114031946054800F09FFD00BF46
:101048002837BD4680BD00BF00200140003802405F
:101058000000024080B400AFFEE780B400AFFEE7B6
:1010680080B400AFFEE780B400AFFEE780B400AF05
:10107800FEE780B400AF00BFBD465DF8047B704753
:1010880080B400AF00BFBD465DF8047B704780B4F4
:1010980000AF00BFBD465DF8047B704780B500AF68
:1010A80000F066F800BF80BD80B400AF064A064B6A
:1010B800D3F8883043F47003C2F8883000BFBD46C7
:1010C8005DF8047B704700BF00ED00E080B500AF1D
:1010D8000E4A0E4B1B6843F4007313600B4A0B4B0C
:1010E8001B6843F480631360084A084B1B6843F489
:1010F80080731360032000F00DFD002000F008F855
:10110800FFF73CFF0023184680BD00BF003C0240AB
:1011180080B582B000AF7860124B1A68124B1B780A
:1011280019464FF47A73B3FBF1F3B2FBF3F31846A5
:1011380000F017FD0346002B01D001230EE07B6869
:101148000F2B0AD8002279684FF0FF3000F0EDFC31
:10115800064A7B681360002300E00123184608371D
:10116800BD4680BD000000200800002004000020CB
:1011780080B400AF064B1B781A46064B1B68134415
:10118800044A136000BFBD465DF8047B704700BF8A
:10119800080000207800002080B400AF034B1B68D3
:1011A8001846BD465DF8047B704700BF78000020F4
:1011B80080B584B000AF78600023FB737B68002B98
:1011C80001D1012333E07B681B6C002B09D17868BF
:1011D800FFF7FCFE7B6800225A647B68002283F8D4
:1011E8003C207B681B6C03F01003002B18D17B6834
:1011F8001B6C23F4885323F0020343F002027B683C
:101208001A64786800F0DAFA7B6800225A647B680E
:101218001B6C23F0030343F001027B681A6401E0AE
:101228000123FB737B68002283F83C20FB7B184674
:101238001037BD4680BD000080B485B000AF78602F
:101248000023BB607B6893F83C30012B01D102235B
:10125800B2E07B68012283F83C207B681B689B68AE
:1012680003F00103012B18D07B681B687A681268A9
:10127800926842F001029A60524B1B68524AA2FBE4
:1012880003239A0C13465B001344BB6002E0BB685F
:10129800013BBB60BB68002BF9D17B681B689B686E
:1012A80003F00103012B7AD17B681B6C23F4E06304
:1012B80023F0010343F480727B681A647B681B681F
:1012C8005B6803F48063002B07D07B681B6C23F4F6
:1012D800405343F480527B681A647B681B6C03F4A8
:1012E8008053B3F5805F06D17B685B6C23F0060200
:1012F8007B685A6402E07B6800225A647B6800229B
:1013080083F83C20314BFB607B681B686FF022023E
:101318001A60FB685B6803F01F03002B2AD17B6807
:101328001B682B4A934215D07B681B68294A934255
:1013380005D1264B5B6803F01F03002B0AD07B689E
:101348001B68254A934236D1204B5B6803F01F0384
:101358000F2B30D87B681B689B6803F04053002B29
:1013680029D17B681B687A681268926842F08042CB
:101378009A6020E07B681B68154A93421BD17B6802
:101388001B689B6803F04053002B14D17B681B68D3
:101398007A681268926842F080429A600BE07B6833
:1013A8001B6C43F010027B681A647B685B6C43F02B
:1013B80001027B685A64002318461437BD465DF85D
:1013C800047B70470000002083DE1B43002301409C
:1013D80000200140002101400022014080B483B078
:1013E80000AF78607B6893F83C30012B01D1022371
:1013F80021E07B68012283F83C207B681B687A68BF
:101408001268926822F001029A607B681B689B68E8
:1014180003F00103002B09D17B681B6C23F488536C
:1014280023F0010343F001027B681A647B68002201
:1014380083F83C20002318460C37BD465DF8047B32
:10144800704780B584B000AF786039600023FB60D6
:101458007B681B689B6803F48063B3F5806F13D1C6
:101468007B681B689B6803F48073B3F5807F0BD19E
:101478007B681B6C43F020027B681A647B6800223F
:1014880083F83C20012363E0FFF786FEF86021E043
:101498003B68B3F1FF3F1DD03B68002B07D0FFF737
:1014A8007BFE0246FB68D21A3B689A4212D97B68D7
:1014B8001B681B6803F00203022B0BD07B681B6CB4
:1014C80043F004027B681A647B68002283F83C209E
:1014D80003233DE07B681B681B6803F00203022BB3
:1014E800D6D17B681B686FF012021A607B681B6C90
:1014F80043F400727B681A647B681B689B6803F07E
:101508004053002B23D17B681B7E002B1FD17B68A7
:101518001B68DB6A03F47003002B06D07B681B682A
:101528009B6803F48063002B11D17B681B6C23F448
:1015380080727B681A647B681B6C03F48053002BF1
:1015480005D17B681B6C43F001027B681A64002399
:1015580018461037BD4680BD80B483B000AF7860B0
:101568007B681B68DB6C18460C37BD465DF8047B4E
:101578007047000090B484B000AF786039600023F1
:10158800BB607B6893F83C30012B01D1022307E153
:101598007B68012283F83C203B681B68092B26D90D
:1015A8007B681A687B681B68D9683B681B689BB2B4
:1015B800184603465B0003441E3B072000FA03F36A
:1015C800DB430B40D3607B681A687B681B68D9686B
:1015D8003B6898683B681B689BB21C4623465B00C7
:1015E80023441E3B00FA03F30B43D36023E07B68DC
:1015F8001A687B681B6819693B681B689BB21846A8
:1016080003465B000344072000FA03F3DB430B4067
:1016180013617B681A687B681B6819693B6898685E
:101628003B681B689BB21C4623465B00234400FAB8
:1016380003F30B4313613B685B68062B24D87B6874
:1016480019687B681B68586B3B685A6813469B008F
:101658001344053B1F2202FA03F3DB4303404B63A9
:101668007B6819687B681B68586B3B681B689BB272
:101678001C463B685A6813469B001344053B04FA12
:1016880003F303434B634CE03B685B680C2B24D8A3
:101698007B6819687B681B68186B3B685A68134637
:1016A8009B001344233B1F2202FA03F3DB4303404E
:1016B8000B637B6819687B681B68186B3B681B6841
:1016C8009BB21C463B685A6813469B001344233B55
:1016D80004FA03F303430B6323E07B6819687B6810
:1016E8001B68D86A3B685A6813469B001344413B01
:1016F8001F2202FA03F3DB430340CB627B681968BD
:101708007B681B68D86A3B681B689BB21C463B68B1
:101718005A6813469B001344413B04FA03F30343FE
:10172800CB62224BFB607B681B68214A934209D13C
:101738003B681B68122B05D1FB685B6843F4800289
:10174800FB685A607B681B68194A934223D13B683F
:101758001B68102B03D03B681B68112B1BD1FB683F
:101768005B6843F40002FB685A603B681B68102BF7
:1017780011D1104B1B68104AA2FB03239A0C134685
:101788009B0013445B00BB6002E0BB68013BBB608D
:10179800BB68002BF9D17B68002283F83C2000232A
:1017A80018461037BD4690BC704700BF0023014063
:1017B800002001400000002083DE1B4380B485B078
:1017C80000AF7860794BFB60FB685B6823F44032BC
:1017D800FB685A60FB685A687B685B681A43FB6859
:1017E8005A607B681B687A681268526822F48072B3
:1017F8005A607B681B687A68126851687A6812694F
:1018080012020A435A607B681B687A681268526839
:1018180022F040725A607B681B687A6812685168C7
:101828007A6892680A435A607B681B687A6812680B
:10183800926822F400629A607B681B687A68126872
:1018480091687A68D2680A439A607B689B6A584AAA
:10185800934222D07B681B687A681268926822F0EB
:1018680070629A607B681B687A68126891687A6807
:10187800926A0A439A607B681B687A681268926861
:1018880022F040529A607B681B687A6812689168F7
:101898007A68D26A0A439A600FE07B681B687A68A4
:1018A8001268926822F070629A607B681B687A6896
:1018B8001268926822F040529A607B681B687A68C6
:1018C8001268926822F002029A607B681B687A6844
:1018D800126891687A68127E52000A439A607B689F
:1018E80093F82030002B1BD07B681B687A6812683D
:1018F800526842F400625A607B681B687A68126812
:10190800526822F460425A607B681B687A681268E1
:1019180051687A68526A013A52030A435A6007E0EA
:101928007B681B687A681268526822F400625A6001
:101938007B681B687A681268D26A22F47002DA62DD
:101948007B681B687A681268D16A7A68D269013A3A
:1019580012050A43DA627B681B687A681268926823
:1019680022F400729A607B681B687A681268916832
:101978007A6892F8302052020A439A607B681B68A2
:101988007A681268926822F480629A607B681B68A1
:101998007A68126891687A68526992020A439A6072
:1019A80000BF1437BD465DF8047B70470023014033
:1019B8000100000F80B485B000AF78607B6803F049
:1019C8000703FB600C4BDB68BB60BA684FF6FF038C
:1019D8001340BB60FB681A02BB68134343F0BF6344
:1019E80043F40033BB60044ABB68D36000BF1437BC
:1019F800BD465DF8047B704700ED00E080B400AFA1
:101A0800044BDB681B0A03F007031846BD465DF864
:101A1800047B704700ED00E080B483B000AF03465C
:101A28003960FB7197F90730002B0ADB0D4997F9EC
:101A380007303A68D2B21201D2B20B4483F80023BD
:101A48000AE00949FB7903F00F03043B3A68D2B274
:101A58001201D2B20B441A7600BF0C37BD465DF8AE
:101A6800047B704700E100E000ED00E080B489B03D
:101A780000AFF860B9607A60FB6803F00703FB61A8
:101A8800FB69C3F10703042B28BF0423BB61FB696F
:101A98000433062B02D9FB69033B00E000237B617A
:101AA8000122BB6902FA03F35A1EBB681A407B691C
:101AB8009A4001217B6901FA03F3591E7B680B40A8
:101AC800134318462437BD465DF8047B7047000071
:101AD80080B582B000AF78607B68013BB3F1807F4E
:101AE80001D301230FE00A4A7B68013B53600F21B1
:101AF8004FF0FF30FFF790FF054B00229A60044B30
:101B080007221A60002318460837BD4680BD00BF6B
:101B180010E000E080B582B000AF78607868FFF729
:101B280049FF00BF0837BD4680BD80B586B000AF0D
:101B38000346B9607A60FB7300237B61FFF75EFFA1
:101B480078617A68B9687869FFF790FF024697F973
:101B58000F3011461846FFF75FFF00BF1837BD4624
:101B680080BD80B582B000AF78607868FFF7B0FFBD
:101B7800034618460837BD4680BD000080B489B0CA
:101B880000AF7860396000237B6100233B6100234C
:101B9800BB610023FB616BE10122FB6902FA03F3DD
:101BA8007B613B681A687B6913403B613A697B69D2
:101BB8009A4240F05A813B685B6803F00303012BAB
:101BC80005D03B685B6803F00303022B30D17B68C8
:101BD8009B68BB61FB695B00032202FA03F3DB43EA
:101BE800BA691340BB613B68DA68FB695B0002FABB
:101BF80003F3BA691343BB617B68BA699A607B686F
:101C08005B68BB610122FB6902FA03F3DB43BA6933
:101C18001340BB613B685B681B0903F00102FB6969
:101C280002FA03F3BA691343BB617B68BA695A6065
:101C38003B685B6803F00303032B17D07B68DB6802
:101C4800BB61FB695B00032202FA03F3DB43BA6959
:101C58001340BB613B689A68FB695B0002FA03F3B7
:101C6800BA691343BB617B68BA69DA603B685B6831
:101C780003F00303022B23D1FB69DA087B680832DF
:101C880053F82230BB61FB6903F007039B000F2266
:101C980002FA03F3DB43BA691340BB613B681A6974
:101CA800FB6903F007039B0002FA03F3BA691343C5
:101CB800BB61FB69DA087B680832B96943F822100E
:101CC8007B681B68BB61FB695B00032202FA03F3B4
:101CD800DB43BA691340BB613B685B6803F00302EE
:101CE800FB695B0002FA03F3BA691343BB617B68C3
:101CF800BA691A603B685B6803F44033002B00F054
:101D0800B4800023FB605F4A5E4B5B6C43F4804306
:101D180053645C4B5B6C03F48043FB60FB685A4A7A
:101D2800FB699B08023352F82330BB61FB6903F05F
:101D380003039B000F2202FA03F3DB43BA69134043
:101D4800BB617B68514A93422BD07B68504A9342CF
:101D580025D07B684F4A93421FD07B684E4A9342F6
:101D680019D07B684D4A934213D07B684C4A934202
:101D78000DD07B684B4A934207D07B684A4A93420E
:101D880001D107230EE008230CE006230AE005230F
:101D980008E0042306E0032304E0022302E0012311
:101DA80000E00023FA6902F0030292009340BA6946
:101DB8001343BB613449FB699B080233BA6941F894
:101DC80023203A4B1B68BB613B69DB43BA6913406C
:101DD800BB613B685B6803F48033002B03D0BA69AE
:101DE8003B691343BB61314ABB6913602F4B5B6886
:101DF800BB613B69DB43BA691340BB613B685B6805
:101E080003F40033002B03D0BA693B691343BB6169
:101E1800264ABB695360254B9B68BB613B69DB4322
:101E2800BA691340BB613B685B6803F48013002BFD
:101E380003D0BA693B691343BB611C4ABB69936011
:101E48001A4BDB68BB613B69DB43BA691340BB6172
:101E58003B685B6803F40013002B03D0BA693B6945
:101E68001343BB61114ABB69D360FB690133FB6152
:101E7800FB690F2B7FF690AE00BF2437BD465DF897
:101E8800047B7047003802400038014000000240DF
:101E98000004024000080240000C0240001002400A
:101EA8000014024000180240001C0240003C01409F
:101EB80080B586B000AF78607B68002B01D1012324
:101EC80064E27B681B6803F00103002B75D0A34B09
:101ED8009B6803F00C03042B0CD0A04B9B6803F009
:101EE8000C03082B12D19D4B5B6803F48003B3F5F8
:101EF800800F0BD1994B1B6803F40033002B5BD088
:101F08007B685B68002B57D101233FE27B685B68E5
:101F1800B3F5803F06D1914A904B1B6843F4803358
:101F280013601DE07B685B68B3F5A02F0CD18B4A6A
:101F38008A4B1B6843F480231360884A874B1B68CD
:101F480043F4803313600BE0844A844B1B6823F40A
:101F580080331360814A814B1B6823F4802313600C
:101F68007B685B68002B13D0FFF716F9386108E02F
:101F7800FFF712F902463B69D31A642B01D90323F0
:101F880004E2764B1B6803F40033002BF0D014E016
:101F9800FFF702F9386108E0FFF7FEF802463B69EF
:101FA800D31A642B01D90323F0E16C4B1B6803F4AB
:101FB8000033002BF0D100E000BF7B681B6803F002
:101FC8000203002B63D0654B9B6803F00C03002BC6
:101FD8000BD0624B9B6803F00C03082B1CD15F4BA2
:101FE8005B6803F48003002B16D15C4B1B6803F07D
:101FF8000203002B05D07B68DB68012B01D001238D
:10200800C4E15649554B1B6823F0F8027B681B69ED
:10201800DB0013430B603AE07B68DB68002B20D0C1
:102028004F4B01221A60FFF7B7F8386108E0FFF755
:10203800B3F802463B69D31A022B01D90323A5E161
:10204800464B1B6803F00203002BF0D04349434B77
:102058001B6823F0F8027B681B69DB0013430B60E5
:1020680015E03F4B00221A60FFF796F8386108E048
:10207800FFF792F802463B69D31A022B01D90323D2
:1020880084E1364B1B6803F00203002BF0D17B6818
:102098001B6803F00803002B30D07B685B69002BBA
:1020A80016D0304B01221A60FFF776F8386108E045
:1020B800FFF772F802463B69D31A022B01D90323B2
:1020C80064E1264B5B6F03F00203002BF0D015E0B0
:1020D800244B00221A60FFF75FF8386108E0FFF729
:1020E8005BF802463B69D31A022B01D903234DE161
:1020F8001A4B5B6F03F00203002BF0D17B681B685F
:1021080003F00403002B00F0A0800023FB75134BA1
:102118001B6C03F08053002B0FD10023BB600F4AC8
:102128000E4B1B6C43F0805313640C4B1B6C03F079
:102138008053BB60BB680123FB750B4B1B6803F422
:102148008073002B21D1084A074B1B6843F4807326
:102158001360FFF721F8386111E000BF0038024032
:1021680000004742800E474200700040FFF714F815
:1021780002463B69D31A022B01D9032306E1854B9A
:102188001B6803F48073002BF0D07B689B68012BDD
:1021980006D1814A804B1B6F43F0010313671CE093
:1021A8007B689B68052B0CD17B4A7B4B1B6F43F0EC
:1021B80004031367784A784B1B6F43F001031367D6
:1021C8000BE0754A744B1B6F23F001031367724AC7
:1021D800714B1B6F23F0040313677B689B68002B0C
:1021E80015D0FEF7D9FF38610AE0FEF7D5FF0246A1
:1021F8003B69D31A41F28832934201D90323C5E0DF
:10220800654B1B6F03F00203002BEED014E0FEF7C2
:10221800C3FF38610AE0FEF7BFFF02463B69D31AE5
:1022280041F28832934201D90323AFE05A4B1B6F26
:1022380003F00203002BEED1FB7D012B05D1564A9A
:10224800554B1B6C23F0805313647B689B69002BF0
:1022580000F09B80504B9B6803F00C03082B5CD06C
:102268007B689B69022B41D14C4B00221A60FEF718
:1022780093FF386108E0FEF78FFF02463B69D31AE7
:10228800022B01D9032381E0434B1B6803F0007341
:10229800002BF0D140497B68DA697B681B6A1A43D6
:1022A8007B685B6A9B011A437B689B6A5B08013BFE
:1022B8001B041A437B68DB6A1B0613434B60374BCE
:1022C80001221A60FEF768FF386108E0FEF764FF34
:1022D80002463B69D31A022B01D9032356E02E4B41
:1022E8001B6803F00073002BF0D04EE02B4B00224C
:1022F8001A60FEF751FF386108E0FEF74DFF02460D
:102308003B69D31A022B01D903233FE0224B1B68F8
:1023180003F00073002BF0D137E07B689B69012B39
:1023280001D1012332E01C4B5B68FB607B689B6931
:10233800012B28D0FB6803F480027B68DB699A4292
:1023480021D1FB6803F03F027B681B6A9A421AD1CD
:10235800FA6847F6C07313407A68526A920193424A
:1023680011D1FB6803F440327B689B6A5B08013B30
:102378001B049A4207D1FB6803F070627B68DB6A32
:102388001B069A4201D0012300E0002318461837A3
:10239800BD4680BD007000400038024060004742E2
:1023A80080B584B000AF786039607B68002B01D1BC
:1023B8000123CCE0684B1B6803F007023B689A4294
:1023C8000CD2654B3A68D2B21A70634B1B6803F0A3
:1023D80007023B689A4201D00123B8E07B681B687A
:1023E80003F00203002B20D07B681B6803F0040372
:1023F800002B05D0594A594B9B6843F4E05393602E
:102408007B681B6803F00803002B05D0534A534B25
:102418009B6843F4604393605049504B9B6823F09A
:10242800F0027B689B6813438B607B681B6803F032
:102438000103002B44D07B685B68012B07D1474B15
:102448001B6803F40033002B19D101237FE07B685C
:102458005B68022B03D07B685B68032B07D13F4B7B
:102468001B6803F00073002B09D101236FE03B4B7D
:102478001B6803F00203002B01D1012367E03749F1
:10248800364B9B6823F003027B685B6813438B60C1
:10249800FEF782FEF8600AE0FEF77EFE0246FB6861
:1024A800D31A41F28832934201D903234FE02B4BD0
:1024B8009B6803F00C027B685B689B009A42EBD137
:1024C800254B1B6803F007023B689A420CD9224B44
:1024D8003A68D2B21A70204B1B6803F007023B68B7
:1024E8009A4201D0012332E07B681B6803F00403A1
:1024F800002B08D01949194B9B6823F4E0527B68DC
:10250800DB6813438B607B681B6803F00803002BB0
:1025180009D01249114B9B6823F460427B681B6900
:10252800DB0013438B6000F021F801460B4B9B68DE
:102538001B0903F00F030A4AD35C21FA03F3094A83
:102548001360094B1B681846FEF7E2FD0023184686
:102558001037BD4680BD00BF003C02400038024035
:10256800E827000800000020040000202DE9F04FB3
:102578008FB000AF0023FB6200237B630023BB62A4
:1025880000233B63624B9B6803F00C03042B07D0CA
:10259800082B08D0002B40F0B2805E4B3B63B1E0C3
:1025A8005D4B3B63AEE05A4B5B6803F03F03FB6255
:1025B800574B5B6803F48003002B4ED0544B5B6889
:1025C8009B094FF0000440F2FF114FF0000201EAAE
:1025D800030102EA04020B46144660017862786A35
:1025E80040EAD36078625B013B62D7E908345B1A42
:1025F80064EB02044FEA841949EA93694FEA8318A5
:10260800B8EB030869EB04094FEAC903FB61FB69EE
:1026180043EA5873FB614FEAC803BB61D7E90689EF
:1026280018EB010849EB02094FEA49237B617B69F2
:1026380043EAD8537B614FEA48233B61D7E90489D1
:1026480040464946FB6A4FF000041A462346FEF707
:10265800D1F903460C467B6343E02D4B5B689B092D
:102668004FF0000440F2FF114FF0000201EA0301AD
:1026780002EA04020B4614466001F860F86840EA72
:10268800D360F8605B01BB60D7E902345B1A64EB86
:102698000204A60146EA93669D01ED1A66EB04065C
:1026A800F3007B607B6843EA55737B60EB003B601B
:1026B80097E860006D1846EB02064FEA862B4BEA56
:1026C800955B4FEA852A55465E4628463146FB6AA1
:1026D8004FF000041A462346FEF78CF903460C46D1
:1026E8007B630B4B5B681B0C03F0030301335B003C
:1026F800BB627A6BBB6AB2FBF3F33B6302E0054B48
:102708003B6300BF3B6B18463C37BD46BDE8F08FC6
:10271800003802400024F40000127A00DFF834D0B8
:102728000D480E490E4A002302E0D458C450043321
:10273800C4188C42F9D30B4A0B4C002301E01360F8
:102748000432A242FBD3FEF7AFFC00F011F8FEF70B
:102758001FFB704700000220000000200C00002032
:10276800082800080C0000207C000020FEE700007C
:1027780070B50D4E0D4CA41BA4100025A54209D11F
:102788000B4E0C4C00F020F8A41BA4100025A54209
:1027980005D170BD56F8253098470135EEE756F853
:1027A800253098470135F2E700280008002800087E
:1027B800002800080428000802440346934200D178
:1027C800704703F8011BF9E7F8B500BFF8BC08BC6F
:1027D8009E467047F8B500BFF8BC08BC9E467047D7
:1027E80000000000000000000102030406070809B9
:0827F80034E2FF7F0100000044
:04280000AD0100081E
:04280400890100083E
:0C2808000024F40010000000010000009B
:0400000508002725A3
:00000001FF
